{
  "_format": "hh-sol-artifact-1",
  "contractName": "NFTMarketplace",
  "sourceName": "contracts/NFTMarketplace.sol",
  "abi": [
    {
      "inputs": [],
      "stateMutability": "nonpayable",
      "type": "constructor"
    },
    {
      "anonymous": false,
      "inputs": [
        {
          "indexed": true,
          "internalType": "address",
          "name": "owner",
          "type": "address"
        },
        {
          "indexed": true,
          "internalType": "address",
          "name": "approved",
          "type": "address"
        },
        {
          "indexed": true,
          "internalType": "uint256",
          "name": "tokenId",
          "type": "uint256"
        }
      ],
      "name": "Approval",
      "type": "event"
    },
    {
      "anonymous": false,
      "inputs": [
        {
          "indexed": true,
          "internalType": "address",
          "name": "owner",
          "type": "address"
        },
        {
          "indexed": true,
          "internalType": "address",
          "name": "operator",
          "type": "address"
        },
        {
          "indexed": false,
          "internalType": "bool",
          "name": "approved",
          "type": "bool"
        }
      ],
      "name": "ApprovalForAll",
      "type": "event"
    },
    {
      "anonymous": false,
      "inputs": [
        {
          "indexed": true,
          "internalType": "uint256",
          "name": "tokenId",
          "type": "uint256"
        },
        {
          "indexed": false,
          "internalType": "address",
          "name": "seller",
          "type": "address"
        },
        {
          "indexed": false,
          "internalType": "address",
          "name": "owner",
          "type": "address"
        },
        {
          "indexed": false,
          "internalType": "uint256",
          "name": "price",
          "type": "uint256"
        },
        {
          "indexed": false,
          "internalType": "bool",
          "name": "sold",
          "type": "bool"
        }
      ],
      "name": "MarketItemCreated",
      "type": "event"
    },
    {
      "anonymous": false,
      "inputs": [
        {
          "indexed": true,
          "internalType": "address",
          "name": "from",
          "type": "address"
        },
        {
          "indexed": true,
          "internalType": "address",
          "name": "to",
          "type": "address"
        },
        {
          "indexed": true,
          "internalType": "uint256",
          "name": "tokenId",
          "type": "uint256"
        }
      ],
      "name": "Transfer",
      "type": "event"
    },
    {
      "inputs": [
        {
          "internalType": "address",
          "name": "to",
          "type": "address"
        },
        {
          "internalType": "uint256",
          "name": "tokenId",
          "type": "uint256"
        }
      ],
      "name": "approve",
      "outputs": [],
      "stateMutability": "nonpayable",
      "type": "function"
    },
    {
      "inputs": [
        {
          "internalType": "address",
          "name": "owner",
          "type": "address"
        }
      ],
      "name": "balanceOf",
      "outputs": [
        {
          "internalType": "uint256",
          "name": "",
          "type": "uint256"
        }
      ],
      "stateMutability": "view",
      "type": "function"
    },
    {
      "inputs": [
        {
          "internalType": "uint256",
          "name": "tokenId",
          "type": "uint256"
        }
      ],
      "name": "createMarketSale",
      "outputs": [],
      "stateMutability": "payable",
      "type": "function"
    },
    {
      "inputs": [
        {
          "internalType": "string",
          "name": "tokenURI",
          "type": "string"
        },
        {
          "internalType": "uint256",
          "name": "price",
          "type": "uint256"
        }
      ],
      "name": "createToken",
      "outputs": [
        {
          "internalType": "uint256",
          "name": "",
          "type": "uint256"
        }
      ],
      "stateMutability": "payable",
      "type": "function"
    },
    {
      "inputs": [],
      "name": "fetchItemsListed",
      "outputs": [
        {
          "components": [
            {
              "internalType": "uint256",
              "name": "tokenId",
              "type": "uint256"
            },
            {
              "internalType": "address payable",
              "name": "seller",
              "type": "address"
            },
            {
              "internalType": "address payable",
              "name": "owner",
              "type": "address"
            },
            {
              "internalType": "uint256",
              "name": "price",
              "type": "uint256"
            },
            {
              "internalType": "bool",
              "name": "sold",
              "type": "bool"
            }
          ],
          "internalType": "struct NFTMarketplace.MarketItem[]",
          "name": "",
          "type": "tuple[]"
        }
      ],
      "stateMutability": "view",
      "type": "function"
    },
    {
      "inputs": [],
      "name": "fetchMarketitems",
      "outputs": [
        {
          "components": [
            {
              "internalType": "uint256",
              "name": "tokenId",
              "type": "uint256"
            },
            {
              "internalType": "address payable",
              "name": "seller",
              "type": "address"
            },
            {
              "internalType": "address payable",
              "name": "owner",
              "type": "address"
            },
            {
              "internalType": "uint256",
              "name": "price",
              "type": "uint256"
            },
            {
              "internalType": "bool",
              "name": "sold",
              "type": "bool"
            }
          ],
          "internalType": "struct NFTMarketplace.MarketItem[]",
          "name": "",
          "type": "tuple[]"
        }
      ],
      "stateMutability": "view",
      "type": "function"
    },
    {
      "inputs": [],
      "name": "fetchMyNFTs",
      "outputs": [
        {
          "components": [
            {
              "internalType": "uint256",
              "name": "tokenId",
              "type": "uint256"
            },
            {
              "internalType": "address payable",
              "name": "seller",
              "type": "address"
            },
            {
              "internalType": "address payable",
              "name": "owner",
              "type": "address"
            },
            {
              "internalType": "uint256",
              "name": "price",
              "type": "uint256"
            },
            {
              "internalType": "bool",
              "name": "sold",
              "type": "bool"
            }
          ],
          "internalType": "struct NFTMarketplace.MarketItem[]",
          "name": "",
          "type": "tuple[]"
        }
      ],
      "stateMutability": "view",
      "type": "function"
    },
    {
      "inputs": [
        {
          "internalType": "uint256",
          "name": "tokenId",
          "type": "uint256"
        }
      ],
      "name": "getApproved",
      "outputs": [
        {
          "internalType": "address",
          "name": "",
          "type": "address"
        }
      ],
      "stateMutability": "view",
      "type": "function"
    },
    {
      "inputs": [],
      "name": "getListingPrice",
      "outputs": [
        {
          "internalType": "uint256",
          "name": "",
          "type": "uint256"
        }
      ],
      "stateMutability": "view",
      "type": "function"
    },
    {
      "inputs": [
        {
          "internalType": "address",
          "name": "owner",
          "type": "address"
        },
        {
          "internalType": "address",
          "name": "operator",
          "type": "address"
        }
      ],
      "name": "isApprovedForAll",
      "outputs": [
        {
          "internalType": "bool",
          "name": "",
          "type": "bool"
        }
      ],
      "stateMutability": "view",
      "type": "function"
    },
    {
      "inputs": [],
      "name": "name",
      "outputs": [
        {
          "internalType": "string",
          "name": "",
          "type": "string"
        }
      ],
      "stateMutability": "view",
      "type": "function"
    },
    {
      "inputs": [
        {
          "internalType": "uint256",
          "name": "tokenId",
          "type": "uint256"
        }
      ],
      "name": "ownerOf",
      "outputs": [
        {
          "internalType": "address",
          "name": "",
          "type": "address"
        }
      ],
      "stateMutability": "view",
      "type": "function"
    },
    {
      "inputs": [
        {
          "internalType": "uint256",
          "name": "tokenId",
          "type": "uint256"
        },
        {
          "internalType": "uint256",
          "name": "price",
          "type": "uint256"
        }
      ],
      "name": "resellToken",
      "outputs": [],
      "stateMutability": "payable",
      "type": "function"
    },
    {
      "inputs": [
        {
          "internalType": "address",
          "name": "from",
          "type": "address"
        },
        {
          "internalType": "address",
          "name": "to",
          "type": "address"
        },
        {
          "internalType": "uint256",
          "name": "tokenId",
          "type": "uint256"
        }
      ],
      "name": "safeTransferFrom",
      "outputs": [],
      "stateMutability": "nonpayable",
      "type": "function"
    },
    {
      "inputs": [
        {
          "internalType": "address",
          "name": "from",
          "type": "address"
        },
        {
          "internalType": "address",
          "name": "to",
          "type": "address"
        },
        {
          "internalType": "uint256",
          "name": "tokenId",
          "type": "uint256"
        },
        {
          "internalType": "bytes",
          "name": "data",
          "type": "bytes"
        }
      ],
      "name": "safeTransferFrom",
      "outputs": [],
      "stateMutability": "nonpayable",
      "type": "function"
    },
    {
      "inputs": [
        {
          "internalType": "address",
          "name": "operator",
          "type": "address"
        },
        {
          "internalType": "bool",
          "name": "approved",
          "type": "bool"
        }
      ],
      "name": "setApprovalForAll",
      "outputs": [],
      "stateMutability": "nonpayable",
      "type": "function"
    },
    {
      "inputs": [
        {
          "internalType": "bytes4",
          "name": "interfaceId",
          "type": "bytes4"
        }
      ],
      "name": "supportsInterface",
      "outputs": [
        {
          "internalType": "bool",
          "name": "",
          "type": "bool"
        }
      ],
      "stateMutability": "view",
      "type": "function"
    },
    {
      "inputs": [],
      "name": "symbol",
      "outputs": [
        {
          "internalType": "string",
          "name": "",
          "type": "string"
        }
      ],
      "stateMutability": "view",
      "type": "function"
    },
    {
      "inputs": [
        {
          "internalType": "uint256",
          "name": "tokenId",
          "type": "uint256"
        }
      ],
      "name": "tokenURI",
      "outputs": [
        {
          "internalType": "string",
          "name": "",
          "type": "string"
        }
      ],
      "stateMutability": "view",
      "type": "function"
    },
    {
      "inputs": [
        {
          "internalType": "address",
          "name": "from",
          "type": "address"
        },
        {
          "internalType": "address",
          "name": "to",
          "type": "address"
        },
        {
          "internalType": "uint256",
          "name": "tokenId",
          "type": "uint256"
        }
      ],
      "name": "transferFrom",
      "outputs": [],
      "stateMutability": "nonpayable",
      "type": "function"
    },
    {
      "inputs": [
        {
          "internalType": "uint256",
          "name": "_listingPrice",
          "type": "uint256"
        }
      ],
      "name": "updateListingPrice",
      "outputs": [],
      "stateMutability": "payable",
      "type": "function"
    }
  ],
  "bytecode": "0x60806040526658d15e176280006009553480156200001c57600080fd5b506040518060400160405280600e81526020017f57454220332e3020546f6b656e730000000000000000000000000000000000008152506040518060400160405280600481526020017f4d455454000000000000000000000000000000000000000000000000000000008152508160009080519060200190620000a192919062000104565b508060019080519060200190620000ba92919062000104565b50505033600a60006101000a81548173ffffffffffffffffffffffffffffffffffffffff021916908373ffffffffffffffffffffffffffffffffffffffff16021790555062000219565b8280546200011290620001b4565b90600052602060002090601f01602090048101928262000136576000855562000182565b82601f106200015157805160ff191683800117855562000182565b8280016001018555821562000182579182015b828111156200018157825182559160200191906001019062000164565b5b50905062000191919062000195565b5090565b5b80821115620001b057600081600090555060010162000196565b5090565b60006002820490506001821680620001cd57607f821691505b60208210811415620001e457620001e3620001ea565b5b50919050565b7f4e487b7100000000000000000000000000000000000000000000000000000000600052602260045260246000fd5b6143c280620002296000396000f3fe60806040526004361061012a5760003560e01c806370a08231116100ab578063ae677aa31161006f578063ae677aa3146103f9578063b88d4fde14610415578063be9af5361461043e578063c87b56dd1461045a578063e219fc7514610497578063e985e9c5146104b35761012a565b806370a082311461030d57806372b3b6201461034a57806385006bc01461037a57806395d89b41146103a5578063a22cb465146103d05761012a565b8063202e3740116100f2578063202e37401461022857806323b872dd1461025357806342842e0e1461027c57806345f8fa80146102a55780636352211e146102d05761012a565b806301ffc9a71461012f57806306fdde031461016c578063081812fc14610197578063095ea7b3146101d457806312e85585146101fd575b600080fd5b34801561013b57600080fd5b506101566004803603810190610151919061316f565b6104f0565b60405161016391906137e0565b60405180910390f35b34801561017857600080fd5b506101816105d2565b60405161018e91906137fb565b60405180910390f35b3480156101a357600080fd5b506101be60048036038101906101b99190613215565b610664565b6040516101cb9190613712565b60405180910390f35b3480156101e057600080fd5b506101fb60048036038101906101f69190613133565b6106aa565b005b34801561020957600080fd5b506102126107c2565b60405161021f9190613a7d565b60405180910390f35b34801561023457600080fd5b5061023d6107cc565b60405161024a91906137be565b60405180910390f35b34801561025f57600080fd5b5061027a6004803603810190610275919061302d565b610b06565b005b34801561028857600080fd5b506102a3600480360381019061029e919061302d565b610b66565b005b3480156102b157600080fd5b506102ba610b86565b6040516102c791906137be565b60405180910390f35b3480156102dc57600080fd5b506102f760048036038101906102f29190613215565b610ec0565b6040516103049190613712565b60405180910390f35b34801561031957600080fd5b50610334600480360381019061032f9190612fc8565b610f47565b6040516103419190613a7d565b60405180910390f35b610364600480360381019061035f91906131c1565b610fff565b6040516103719190613a7d565b60405180910390f35b34801561038657600080fd5b5061038f611041565b60405161039c91906137be565b60405180910390f35b3480156103b157600080fd5b506103ba6112f6565b6040516103c791906137fb565b60405180910390f35b3480156103dc57600080fd5b506103f760048036038101906103f291906130f7565b611388565b005b610413600480360381019061040e9190613215565b61139e565b005b34801561042157600080fd5b5061043c6004803603810190610437919061307c565b611438565b005b61045860048036038101906104539190613215565b61149a565b005b34801561046657600080fd5b50610481600480360381019061047c9190613215565b6116d2565b60405161048e91906137fb565b60405180910390f35b6104b160048036038101906104ac919061323e565b6117e5565b005b3480156104bf57600080fd5b506104da60048036038101906104d59190612ff1565b6119da565b6040516104e791906137e0565b60405180910390f35b60007f80ac58cd000000000000000000000000000000000000000000000000000000007bffffffffffffffffffffffffffffffffffffffffffffffffffffffff1916827bffffffffffffffffffffffffffffffffffffffffffffffffffffffff191614806105bb57507f5b5e139f000000000000000000000000000000000000000000000000000000007bffffffffffffffffffffffffffffffffffffffffffffffffffffffff1916827bffffffffffffffffffffffffffffffffffffffffffffffffffffffff1916145b806105cb57506105ca82611a6e565b5b9050919050565b6060600080546105e190613ced565b80601f016020809104026020016040519081016040528092919081815260200182805461060d90613ced565b801561065a5780601f1061062f5761010080835404028352916020019161065a565b820191906000526020600020905b81548152906001019060200180831161063d57829003601f168201915b5050505050905090565b600061066f82611ad8565b6004600083815260200190815260200160002060009054906101000a900473ffffffffffffffffffffffffffffffffffffffff169050919050565b60006106b582610ec0565b90508073ffffffffffffffffffffffffffffffffffffffff168373ffffffffffffffffffffffffffffffffffffffff161415610726576040517f08c379a000000000000000000000000000000000000000000000000000000000815260040161071d906139fd565b60405180910390fd5b8073ffffffffffffffffffffffffffffffffffffffff16610745611b23565b73ffffffffffffffffffffffffffffffffffffffff16148061077457506107738161076e611b23565b6119da565b5b6107b3576040517f08c379a00000000000000000000000000000000000000000000000000000000081526004016107aa90613a5d565b60405180910390fd5b6107bd8383611b2b565b505050565b6000600954905090565b606060006107da6007611be4565b905060008060005b83811015610883573373ffffffffffffffffffffffffffffffffffffffff16600b60006001846108129190613b9b565b815260200190815260200160002060020160009054906101000a900473ffffffffffffffffffffffffffffffffffffffff1673ffffffffffffffffffffffffffffffffffffffff1614156108705760018361086d9190613b9b565b92505b808061087b90613d50565b9150506107e2565b5060008267ffffffffffffffff8111156108c6577f4e487b7100000000000000000000000000000000000000000000000000000000600052604160045260246000fd5b6040519080825280602002602001820160405280156108ff57816020015b6108ec612d8f565b8152602001906001900390816108e45790505b50905060005b83811015610afb573073ffffffffffffffffffffffffffffffffffffffff16600b60006001846109359190613b9b565b815260200190815260200160002060020160009054906101000a900473ffffffffffffffffffffffffffffffffffffffff1673ffffffffffffffffffffffffffffffffffffffff161415610ae85760006001826109929190613b9b565b90506000600b60008381526020019081526020016000209050806040518060a0016040529081600082015481526020016001820160009054906101000a900473ffffffffffffffffffffffffffffffffffffffff1673ffffffffffffffffffffffffffffffffffffffff1673ffffffffffffffffffffffffffffffffffffffff1681526020016002820160009054906101000a900473ffffffffffffffffffffffffffffffffffffffff1673ffffffffffffffffffffffffffffffffffffffff1673ffffffffffffffffffffffffffffffffffffffff168152602001600382015481526020016004820160009054906101000a900460ff161515151581525050848681518110610acb577f4e487b7100000000000000000000000000000000000000000000000000000000600052603260045260246000fd5b6020026020010181905250600185610ae39190613b9b565b945050505b8080610af390613d50565b915050610905565b508094505050505090565b610b17610b11611b23565b82611bf2565b610b56576040517f08c379a0000000000000000000000000000000000000000000000000000000008152600401610b4d9061381d565b60405180910390fd5b610b61838383611c87565b505050565b610b8183838360405180602001604052806000815250611438565b505050565b60606000610b946007611be4565b905060008060005b83811015610c3d573373ffffffffffffffffffffffffffffffffffffffff16600b6000600184610bcc9190613b9b565b815260200190815260200160002060010160009054906101000a900473ffffffffffffffffffffffffffffffffffffffff1673ffffffffffffffffffffffffffffffffffffffff161415610c2a57600183610c279190613b9b565b92505b8080610c3590613d50565b915050610b9c565b5060008267ffffffffffffffff811115610c80577f4e487b7100000000000000000000000000000000000000000000000000000000600052604160045260246000fd5b604051908082528060200260200182016040528015610cb957816020015b610ca6612d8f565b815260200190600190039081610c9e5790505b50905060005b83811015610eb5573073ffffffffffffffffffffffffffffffffffffffff16600b6000600184610cef9190613b9b565b815260200190815260200160002060010160009054906101000a900473ffffffffffffffffffffffffffffffffffffffff1673ffffffffffffffffffffffffffffffffffffffff161415610ea2576000600182610d4c9190613b9b565b90506000600b60008381526020019081526020016000209050806040518060a0016040529081600082015481526020016001820160009054906101000a900473ffffffffffffffffffffffffffffffffffffffff1673ffffffffffffffffffffffffffffffffffffffff1673ffffffffffffffffffffffffffffffffffffffff1681526020016002820160009054906101000a900473ffffffffffffffffffffffffffffffffffffffff1673ffffffffffffffffffffffffffffffffffffffff1673ffffffffffffffffffffffffffffffffffffffff168152602001600382015481526020016004820160009054906101000a900460ff161515151581525050848681518110610e85577f4e487b7100000000000000000000000000000000000000000000000000000000600052603260045260246000fd5b6020026020010181905250600185610e9d9190613b9b565b945050505b8080610ead90613d50565b915050610cbf565b508094505050505090565b600080610ecc83611f81565b9050600073ffffffffffffffffffffffffffffffffffffffff168173ffffffffffffffffffffffffffffffffffffffff161415610f3e576040517f08c379a0000000000000000000000000000000000000000000000000000000008152600401610f35906139dd565b60405180910390fd5b80915050919050565b60008073ffffffffffffffffffffffffffffffffffffffff168273ffffffffffffffffffffffffffffffffffffffff161415610fb8576040517f08c379a0000000000000000000000000000000000000000000000000000000008152600401610faf9061393d565b60405180910390fd5b600360008373ffffffffffffffffffffffffffffffffffffffff1673ffffffffffffffffffffffffffffffffffffffff168152602001908152602001600020549050919050565b600061100b6007611fbe565b60006110176007611be4565b90506110233382611fd4565b61102d81856121f2565b6110378184612266565b8091505092915050565b6060600061104f6007611be4565b9050600061105d6008611be4565b6110676007611be4565b6110719190613bf1565b90506000808267ffffffffffffffff8111156110b6577f4e487b7100000000000000000000000000000000000000000000000000000000600052604160045260246000fd5b6040519080825280602002602001820160405280156110ef57816020015b6110dc612d8f565b8152602001906001900390816110d45790505b50905060005b848110156112eb573073ffffffffffffffffffffffffffffffffffffffff16600b60006001846111259190613b9b565b815260200190815260200160002060020160009054906101000a900473ffffffffffffffffffffffffffffffffffffffff1673ffffffffffffffffffffffffffffffffffffffff1614156112d85760006001826111829190613b9b565b90506000600b60008381526020019081526020016000209050806040518060a0016040529081600082015481526020016001820160009054906101000a900473ffffffffffffffffffffffffffffffffffffffff1673ffffffffffffffffffffffffffffffffffffffff1673ffffffffffffffffffffffffffffffffffffffff1681526020016002820160009054906101000a900473ffffffffffffffffffffffffffffffffffffffff1673ffffffffffffffffffffffffffffffffffffffff1673ffffffffffffffffffffffffffffffffffffffff168152602001600382015481526020016004820160009054906101000a900460ff1615151515815250508486815181106112bb577f4e487b7100000000000000000000000000000000000000000000000000000000600052603260045260246000fd5b60200260200101819052506001856112d39190613b9b565b945050505b80806112e390613d50565b9150506110f5565b508094505050505090565b60606001805461130590613ced565b80601f016020809104026020016040519081016040528092919081815260200182805461133190613ced565b801561137e5780601f106113535761010080835404028352916020019161137e565b820191906000526020600020905b81548152906001019060200180831161136157829003601f168201915b5050505050905090565b61139a611393611b23565b8383612469565b5050565b3373ffffffffffffffffffffffffffffffffffffffff16600a60009054906101000a900473ffffffffffffffffffffffffffffffffffffffff1673ffffffffffffffffffffffffffffffffffffffff161461142e576040517f08c379a0000000000000000000000000000000000000000000000000000000008152600401611425906138dd565b60405180910390fd5b8060098190555050565b611449611443611b23565b83611bf2565b611488576040517f08c379a000000000000000000000000000000000000000000000000000000000815260040161147f9061381d565b60405180910390fd5b611494848484846125d6565b50505050565b6000600b60008381526020019081526020016000206003015490508034146114f7576040517f08c379a00000000000000000000000000000000000000000000000000000000081526004016114ee9061397d565b60405180910390fd5b33600b600084815260200190815260200160002060020160006101000a81548173ffffffffffffffffffffffffffffffffffffffff021916908373ffffffffffffffffffffffffffffffffffffffff1602179055506001600b600084815260200190815260200160002060040160006101000a81548160ff0219169083151502179055506000600b600084815260200190815260200160002060010160006101000a81548173ffffffffffffffffffffffffffffffffffffffff021916908373ffffffffffffffffffffffffffffffffffffffff1602179055506115db6008611fbe565b6115e6303384611c87565b600a60009054906101000a900473ffffffffffffffffffffffffffffffffffffffff1673ffffffffffffffffffffffffffffffffffffffff166108fc6009549081150290604051600060405180830381858888f19350505050158015611650573d6000803e3d6000fd5b50600b600083815260200190815260200160002060010160009054906101000a900473ffffffffffffffffffffffffffffffffffffffff1673ffffffffffffffffffffffffffffffffffffffff166108fc349081150290604051600060405180830381858888f193505050501580156116cd573d6000803e3d6000fd5b505050565b60606116dd82611ad8565b60006006600084815260200190815260200160002080546116fd90613ced565b80601f016020809104026020016040519081016040528092919081815260200182805461172990613ced565b80156117765780601f1061174b57610100808354040283529160200191611776565b820191906000526020600020905b81548152906001019060200180831161175957829003601f168201915b505050505090506000611787612632565b905060008151141561179d5781925050506117e0565b6000825111156117d25780826040516020016117ba9291906136ee565b604051602081830303815290604052925050506117e0565b6117db84612649565b925050505b919050565b3373ffffffffffffffffffffffffffffffffffffffff16600b600084815260200190815260200160002060020160009054906101000a900473ffffffffffffffffffffffffffffffffffffffff1673ffffffffffffffffffffffffffffffffffffffff1614611889576040517f08c379a0000000000000000000000000000000000000000000000000000000008152600401611880906139bd565b60405180910390fd5b60095434146118cd576040517f08c379a00000000000000000000000000000000000000000000000000000000081526004016118c4906138bd565b60405180910390fd5b6000600b600084815260200190815260200160002060040160006101000a81548160ff02191690831515021790555080600b60008481526020019081526020016000206003018190555033600b600084815260200190815260200160002060010160006101000a81548173ffffffffffffffffffffffffffffffffffffffff021916908373ffffffffffffffffffffffffffffffffffffffff16021790555030600b600084815260200190815260200160002060020160006101000a81548173ffffffffffffffffffffffffffffffffffffffff021916908373ffffffffffffffffffffffffffffffffffffffff1602179055506119cb60086126b1565b6119d6333084611c87565b5050565b6000600560008473ffffffffffffffffffffffffffffffffffffffff1673ffffffffffffffffffffffffffffffffffffffff16815260200190815260200160002060008373ffffffffffffffffffffffffffffffffffffffff1673ffffffffffffffffffffffffffffffffffffffff16815260200190815260200160002060009054906101000a900460ff16905092915050565b60007f01ffc9a7000000000000000000000000000000000000000000000000000000007bffffffffffffffffffffffffffffffffffffffffffffffffffffffff1916827bffffffffffffffffffffffffffffffffffffffffffffffffffffffff1916149050919050565b611ae18161270d565b611b20576040517f08c379a0000000000000000000000000000000000000000000000000000000008152600401611b17906139dd565b60405180910390fd5b50565b600033905090565b816004600083815260200190815260200160002060006101000a81548173ffffffffffffffffffffffffffffffffffffffff021916908373ffffffffffffffffffffffffffffffffffffffff160217905550808273ffffffffffffffffffffffffffffffffffffffff16611b9e83610ec0565b73ffffffffffffffffffffffffffffffffffffffff167f8c5be1e5ebec7d5bd14f71427d1e84f3dd0314c0f7b2291e5b200ac8c7c3b92560405160405180910390a45050565b600081600001549050919050565b600080611bfe83610ec0565b90508073ffffffffffffffffffffffffffffffffffffffff168473ffffffffffffffffffffffffffffffffffffffff161480611c405750611c3f81856119da565b5b80611c7e57508373ffffffffffffffffffffffffffffffffffffffff16611c6684610664565b73ffffffffffffffffffffffffffffffffffffffff16145b91505092915050565b8273ffffffffffffffffffffffffffffffffffffffff16611ca782610ec0565b73ffffffffffffffffffffffffffffffffffffffff1614611cfd576040517f08c379a0000000000000000000000000000000000000000000000000000000008152600401611cf49061387d565b60405180910390fd5b600073ffffffffffffffffffffffffffffffffffffffff168273ffffffffffffffffffffffffffffffffffffffff161415611d6d576040517f08c379a0000000000000000000000000000000000000000000000000000000008152600401611d64906138fd565b60405180910390fd5b611d7a838383600161274e565b8273ffffffffffffffffffffffffffffffffffffffff16611d9a82610ec0565b73ffffffffffffffffffffffffffffffffffffffff1614611df0576040517f08c379a0000000000000000000000000000000000000000000000000000000008152600401611de79061387d565b60405180910390fd5b6004600082815260200190815260200160002060006101000a81549073ffffffffffffffffffffffffffffffffffffffff02191690556001600360008573ffffffffffffffffffffffffffffffffffffffff1673ffffffffffffffffffffffffffffffffffffffff168152602001908152602001600020600082825403925050819055506001600360008473ffffffffffffffffffffffffffffffffffffffff1673ffffffffffffffffffffffffffffffffffffffff16815260200190815260200160002060008282540192505081905550816002600083815260200190815260200160002060006101000a81548173ffffffffffffffffffffffffffffffffffffffff021916908373ffffffffffffffffffffffffffffffffffffffff160217905550808273ffffffffffffffffffffffffffffffffffffffff168473ffffffffffffffffffffffffffffffffffffffff167fddf252ad1be2c89b69c2b068fc378daa952ba7f163c4a11628f55a4df523b3ef60405160405180910390a4611f7c8383836001612874565b505050565b60006002600083815260200190815260200160002060009054906101000a900473ffffffffffffffffffffffffffffffffffffffff169050919050565b6001816000016000828254019250508190555050565b600073ffffffffffffffffffffffffffffffffffffffff168273ffffffffffffffffffffffffffffffffffffffff161415612044576040517f08c379a000000000000000000000000000000000000000000000000000000000815260040161203b9061399d565b60405180910390fd5b61204d8161270d565b1561208d576040517f08c379a00000000000000000000000000000000000000000000000000000000081526004016120849061389d565b60405180910390fd5b61209b60008383600161274e565b6120a48161270d565b156120e4576040517f08c379a00000000000000000000000000000000000000000000000000000000081526004016120db9061389d565b60405180910390fd5b6001600360008473ffffffffffffffffffffffffffffffffffffffff1673ffffffffffffffffffffffffffffffffffffffff16815260200190815260200160002060008282540192505081905550816002600083815260200190815260200160002060006101000a81548173ffffffffffffffffffffffffffffffffffffffff021916908373ffffffffffffffffffffffffffffffffffffffff160217905550808273ffffffffffffffffffffffffffffffffffffffff16600073ffffffffffffffffffffffffffffffffffffffff167fddf252ad1be2c89b69c2b068fc378daa952ba7f163c4a11628f55a4df523b3ef60405160405180910390a46121ee600083836001612874565b5050565b6121fb8261270d565b61223a576040517f08c379a00000000000000000000000000000000000000000000000000000000081526004016122319061395d565b60405180910390fd5b80600660008481526020019081526020016000209080519060200190612261929190612dec565b505050565b600081116122a9576040517f08c379a00000000000000000000000000000000000000000000000000000000081526004016122a090613a1d565b60405180910390fd5b60095434146122ed576040517f08c379a00000000000000000000000000000000000000000000000000000000081526004016122e490613a3d565b60405180910390fd5b6040518060a001604052808381526020013373ffffffffffffffffffffffffffffffffffffffff1681526020013073ffffffffffffffffffffffffffffffffffffffff16815260200182815260200160001515815250600b60008481526020019081526020016000206000820151816000015560208201518160010160006101000a81548173ffffffffffffffffffffffffffffffffffffffff021916908373ffffffffffffffffffffffffffffffffffffffff16021790555060408201518160020160006101000a81548173ffffffffffffffffffffffffffffffffffffffff021916908373ffffffffffffffffffffffffffffffffffffffff1602179055506060820151816003015560808201518160040160006101000a81548160ff021916908315150217905550905050612426333084611c87565b817fb640004f1d14576d0c209e240cad0410e0d8c0c33a09375861fbadae2588a98d333084600060405161245d949392919061372d565b60405180910390a25050565b8173ffffffffffffffffffffffffffffffffffffffff168373ffffffffffffffffffffffffffffffffffffffff1614156124d8576040517f08c379a00000000000000000000000000000000000000000000000000000000081526004016124cf9061391d565b60405180910390fd5b80600560008573ffffffffffffffffffffffffffffffffffffffff1673ffffffffffffffffffffffffffffffffffffffff16815260200190815260200160002060008473ffffffffffffffffffffffffffffffffffffffff1673ffffffffffffffffffffffffffffffffffffffff16815260200190815260200160002060006101000a81548160ff0219169083151502179055508173ffffffffffffffffffffffffffffffffffffffff168373ffffffffffffffffffffffffffffffffffffffff167f17307eab39ab6107e8899845ad3d59bd9653f200f220920489ca2b5937696c31836040516125c991906137e0565b60405180910390a3505050565b6125e1848484611c87565b6125ed8484848461287a565b61262c576040517f08c379a00000000000000000000000000000000000000000000000000000000081526004016126239061385d565b60405180910390fd5b50505050565b606060405180602001604052806000815250905090565b606061265482611ad8565b600061265e612632565b9050600081511161267e57604051806020016040528060008152506126a9565b8061268884612a11565b6040516020016126999291906136ee565b6040516020818303038152906040525b915050919050565b600081600001549050600081116126fd576040517f08c379a00000000000000000000000000000000000000000000000000000000081526004016126f49061383d565b60405180910390fd5b6001810382600001819055505050565b60008073ffffffffffffffffffffffffffffffffffffffff1661272f83611f81565b73ffffffffffffffffffffffffffffffffffffffff1614159050919050565b600181111561286e57600073ffffffffffffffffffffffffffffffffffffffff168473ffffffffffffffffffffffffffffffffffffffff16146127e25780600360008673ffffffffffffffffffffffffffffffffffffffff1673ffffffffffffffffffffffffffffffffffffffff16815260200190815260200160002060008282546127da9190613bf1565b925050819055505b600073ffffffffffffffffffffffffffffffffffffffff168373ffffffffffffffffffffffffffffffffffffffff161461286d5780600360008573ffffffffffffffffffffffffffffffffffffffff1673ffffffffffffffffffffffffffffffffffffffff16815260200190815260200160002060008282546128659190613b9b565b925050819055505b5b50505050565b50505050565b600061289b8473ffffffffffffffffffffffffffffffffffffffff16612b35565b15612a04578373ffffffffffffffffffffffffffffffffffffffff1663150b7a026128c4611b23565b8786866040518563ffffffff1660e01b81526004016128e69493929190613772565b602060405180830381600087803b15801561290057600080fd5b505af192505050801561293157506040513d601f19601f8201168201806040525081019061292e9190613198565b60015b6129b4573d8060008114612961576040519150601f19603f3d011682016040523d82523d6000602084013e612966565b606091505b506000815114156129ac576040517f08c379a00000000000000000000000000000000000000000000000000000000081526004016129a39061385d565b60405180910390fd5b805181602001fd5b63150b7a0260e01b7bffffffffffffffffffffffffffffffffffffffffffffffffffffffff1916817bffffffffffffffffffffffffffffffffffffffffffffffffffffffff191614915050612a09565b600190505b949350505050565b606060006001612a2084612b58565b01905060008167ffffffffffffffff811115612a65577f4e487b7100000000000000000000000000000000000000000000000000000000600052604160045260246000fd5b6040519080825280601f01601f191660200182016040528015612a975781602001600182028036833780820191505090505b509050600082602001820190505b600115612b2a578080600190039150507f3031323334353637383961626364656600000000000000000000000000000000600a86061a8153600a8581612b14577f4e487b7100000000000000000000000000000000000000000000000000000000600052601260045260246000fd5b0494506000851415612b2557612b2a565b612aa5565b819350505050919050565b6000808273ffffffffffffffffffffffffffffffffffffffff163b119050919050565b600080600090507a184f03e93ff9f4daa797ed6e38ed64bf6a1f0100000000000000008310612bdc577a184f03e93ff9f4daa797ed6e38ed64bf6a1f0100000000000000008381612bd2577f4e487b7100000000000000000000000000000000000000000000000000000000600052601260045260246000fd5b0492506040810190505b6d04ee2d6d415b85acef81000000008310612c3f576d04ee2d6d415b85acef81000000008381612c35577f4e487b7100000000000000000000000000000000000000000000000000000000600052601260045260246000fd5b0492506020810190505b662386f26fc100008310612c9457662386f26fc100008381612c8a577f4e487b7100000000000000000000000000000000000000000000000000000000600052601260045260246000fd5b0492506010810190505b6305f5e1008310612ce3576305f5e1008381612cd9577f4e487b7100000000000000000000000000000000000000000000000000000000600052601260045260246000fd5b0492506008810190505b6127108310612d2e576127108381612d24577f4e487b7100000000000000000000000000000000000000000000000000000000600052601260045260246000fd5b0492506004810190505b60648310612d775760648381612d6d577f4e487b7100000000000000000000000000000000000000000000000000000000600052601260045260246000fd5b0492506002810190505b600a8310612d86576001810190505b80915050919050565b6040518060a0016040528060008152602001600073ffffffffffffffffffffffffffffffffffffffff168152602001600073ffffffffffffffffffffffffffffffffffffffff168152602001600081526020016000151581525090565b828054612df890613ced565b90600052602060002090601f016020900481019282612e1a5760008555612e61565b82601f10612e3357805160ff1916838001178555612e61565b82800160010185558215612e61579182015b82811115612e60578251825591602001919060010190612e45565b5b509050612e6e9190612e72565b5090565b5b80821115612e8b576000816000905550600101612e73565b5090565b6000612ea2612e9d84613abd565b613a98565b905082815260208101848484011115612eba57600080fd5b612ec5848285613cab565b509392505050565b6000612ee0612edb84613aee565b613a98565b905082815260208101848484011115612ef857600080fd5b612f03848285613cab565b509392505050565b600081359050612f1a81614330565b92915050565b600081359050612f2f81614347565b92915050565b600081359050612f448161435e565b92915050565b600081519050612f598161435e565b92915050565b600082601f830112612f7057600080fd5b8135612f80848260208601612e8f565b91505092915050565b600082601f830112612f9a57600080fd5b8135612faa848260208601612ecd565b91505092915050565b600081359050612fc281614375565b92915050565b600060208284031215612fda57600080fd5b6000612fe884828501612f0b565b91505092915050565b6000806040838503121561300457600080fd5b600061301285828601612f0b565b925050602061302385828601612f0b565b9150509250929050565b60008060006060848603121561304257600080fd5b600061305086828701612f0b565b935050602061306186828701612f0b565b925050604061307286828701612fb3565b9150509250925092565b6000806000806080858703121561309257600080fd5b60006130a087828801612f0b565b94505060206130b187828801612f0b565b93505060406130c287828801612fb3565b925050606085013567ffffffffffffffff8111156130df57600080fd5b6130eb87828801612f5f565b91505092959194509250565b6000806040838503121561310a57600080fd5b600061311885828601612f0b565b925050602061312985828601612f20565b9150509250929050565b6000806040838503121561314657600080fd5b600061315485828601612f0b565b925050602061316585828601612fb3565b9150509250929050565b60006020828403121561318157600080fd5b600061318f84828501612f35565b91505092915050565b6000602082840312156131aa57600080fd5b60006131b884828501612f4a565b91505092915050565b600080604083850312156131d457600080fd5b600083013567ffffffffffffffff8111156131ee57600080fd5b6131fa85828601612f89565b925050602061320b85828601612fb3565b9150509250929050565b60006020828403121561322757600080fd5b600061323584828501612fb3565b91505092915050565b6000806040838503121561325157600080fd5b600061325f85828601612fb3565b925050602061327085828601612fb3565b9150509250929050565b60006132868383613668565b60a08301905092915050565b61329b81613c37565b82525050565b6132aa81613c25565b82525050565b60006132bb82613b2f565b6132c58185613b5d565b93506132d083613b1f565b8060005b838110156133015781516132e8888261327a565b97506132f383613b50565b9250506001810190506132d4565b5085935050505092915050565b61331781613c49565b82525050565b61332681613c49565b82525050565b600061333782613b3a565b6133418185613b6e565b9350613351818560208601613cba565b61335a81613e26565b840191505092915050565b600061337082613b45565b61337a8185613b7f565b935061338a818560208601613cba565b61339381613e26565b840191505092915050565b60006133a982613b45565b6133b38185613b90565b93506133c3818560208601613cba565b80840191505092915050565b60006133dc602d83613b7f565b91506133e782613e37565b604082019050919050565b60006133ff601b83613b7f565b915061340a82613e86565b602082019050919050565b6000613422603283613b7f565b915061342d82613eaf565b604082019050919050565b6000613445602583613b7f565b915061345082613efe565b604082019050919050565b6000613468601c83613b7f565b915061347382613f4d565b602082019050919050565b600061348b602883613b7f565b915061349682613f76565b604082019050919050565b60006134ae603383613b7f565b91506134b982613fc5565b604082019050919050565b60006134d1602483613b7f565b91506134dc82614014565b604082019050919050565b60006134f4601983613b7f565b91506134ff82614063565b602082019050919050565b6000613517602983613b7f565b91506135228261408c565b604082019050919050565b600061353a602e83613b7f565b9150613545826140db565b604082019050919050565b600061355d604083613b7f565b91506135688261412a565b604082019050919050565b6000613580602083613b7f565b915061358b82614179565b602082019050919050565b60006135a3602a83613b7f565b91506135ae826141a2565b604082019050919050565b60006135c6601883613b7f565b91506135d1826141f1565b602082019050919050565b60006135e9602183613b7f565b91506135f48261421a565b604082019050919050565b600061360c601783613b7f565b915061361782614269565b602082019050919050565b600061362f602483613b7f565b915061363a82614292565b604082019050919050565b6000613652603d83613b7f565b915061365d826142e1565b604082019050919050565b60a08201600082015161367e60008501826136d0565b5060208201516136916020850182613292565b5060408201516136a46040850182613292565b5060608201516136b760608501826136d0565b5060808201516136ca608085018261330e565b50505050565b6136d981613ca1565b82525050565b6136e881613ca1565b82525050565b60006136fa828561339e565b9150613706828461339e565b91508190509392505050565b600060208201905061372760008301846132a1565b92915050565b600060808201905061374260008301876132a1565b61374f60208301866132a1565b61375c60408301856136df565b613769606083018461331d565b95945050505050565b600060808201905061378760008301876132a1565b61379460208301866132a1565b6137a160408301856136df565b81810360608301526137b3818461332c565b905095945050505050565b600060208201905081810360008301526137d881846132b0565b905092915050565b60006020820190506137f5600083018461331d565b92915050565b600060208201905081810360008301526138158184613365565b905092915050565b60006020820190508181036000830152613836816133cf565b9050919050565b60006020820190508181036000830152613856816133f2565b9050919050565b6000602082019050818103600083015261387681613415565b9050919050565b6000602082019050818103600083015261389681613438565b9050919050565b600060208201905081810360008301526138b68161345b565b9050919050565b600060208201905081810360008301526138d68161347e565b9050919050565b600060208201905081810360008301526138f6816134a1565b9050919050565b60006020820190508181036000830152613916816134c4565b9050919050565b60006020820190508181036000830152613936816134e7565b9050919050565b600060208201905081810360008301526139568161350a565b9050919050565b600060208201905081810360008301526139768161352d565b9050919050565b6000602082019050818103600083015261399681613550565b9050919050565b600060208201905081810360008301526139b681613573565b9050919050565b600060208201905081810360008301526139d681613596565b9050919050565b600060208201905081810360008301526139f6816135b9565b9050919050565b60006020820190508181036000830152613a16816135dc565b9050919050565b60006020820190508181036000830152613a36816135ff565b9050919050565b60006020820190508181036000830152613a5681613622565b9050919050565b60006020820190508181036000830152613a7681613645565b9050919050565b6000602082019050613a9260008301846136df565b92915050565b6000613aa2613ab3565b9050613aae8282613d1f565b919050565b6000604051905090565b600067ffffffffffffffff821115613ad857613ad7613df7565b5b613ae182613e26565b9050602081019050919050565b600067ffffffffffffffff821115613b0957613b08613df7565b5b613b1282613e26565b9050602081019050919050565b6000819050602082019050919050565b600081519050919050565b600081519050919050565b600081519050919050565b6000602082019050919050565b600082825260208201905092915050565b600082825260208201905092915050565b600082825260208201905092915050565b600081905092915050565b6000613ba682613ca1565b9150613bb183613ca1565b9250827fffffffffffffffffffffffffffffffffffffffffffffffffffffffffffffffff03821115613be657613be5613d99565b5b828201905092915050565b6000613bfc82613ca1565b9150613c0783613ca1565b925082821015613c1a57613c19613d99565b5b828203905092915050565b6000613c3082613c81565b9050919050565b6000613c4282613c81565b9050919050565b60008115159050919050565b60007fffffffff0000000000000000000000000000000000000000000000000000000082169050919050565b600073ffffffffffffffffffffffffffffffffffffffff82169050919050565b6000819050919050565b82818337600083830152505050565b60005b83811015613cd8578082015181840152602081019050613cbd565b83811115613ce7576000848401525b50505050565b60006002820490506001821680613d0557607f821691505b60208210811415613d1957613d18613dc8565b5b50919050565b613d2882613e26565b810181811067ffffffffffffffff82111715613d4757613d46613df7565b5b80604052505050565b6000613d5b82613ca1565b91507fffffffffffffffffffffffffffffffffffffffffffffffffffffffffffffffff821415613d8e57613d8d613d99565b5b600182019050919050565b7f4e487b7100000000000000000000000000000000000000000000000000000000600052601160045260246000fd5b7f4e487b7100000000000000000000000000000000000000000000000000000000600052602260045260246000fd5b7f4e487b7100000000000000000000000000000000000000000000000000000000600052604160045260246000fd5b6000601f19601f8301169050919050565b7f4552433732313a2063616c6c6572206973206e6f7420746f6b656e206f776e6560008201527f72206f7220617070726f76656400000000000000000000000000000000000000602082015250565b7f436f756e7465723a2064656372656d656e74206f766572666c6f770000000000600082015250565b7f4552433732313a207472616e7366657220746f206e6f6e20455243373231526560008201527f63656976657220696d706c656d656e7465720000000000000000000000000000602082015250565b7f4552433732313a207472616e736665722066726f6d20696e636f72726563742060008201527f6f776e6572000000000000000000000000000000000000000000000000000000602082015250565b7f4552433732313a20746f6b656e20616c7265616479206d696e74656400000000600082015250565b7f5072696365206d75737420626520657175616c20746f20746865206c6973746960008201527f6e67207072696365000000000000000000000000000000000000000000000000602082015250565b7f4f6e6c79206d61726b6574706c616365206f776e65722063616e20757064617460008201527f6520746865206c697374696e6720707269636500000000000000000000000000602082015250565b7f4552433732313a207472616e7366657220746f20746865207a65726f2061646460008201527f7265737300000000000000000000000000000000000000000000000000000000602082015250565b7f4552433732313a20617070726f766520746f2063616c6c657200000000000000600082015250565b7f4552433732313a2061646472657373207a65726f206973206e6f74206120766160008201527f6c6964206f776e65720000000000000000000000000000000000000000000000602082015250565b7f45524337323155524953746f726167653a2055524920736574206f66206e6f6e60008201527f6578697374656e7420746f6b656e000000000000000000000000000000000000602082015250565b7f506c65617365207375626d6974207468652061736b696e67207072696365206960008201527f6e206f7264657220746f20636f6d706c65746520746865207075726368617365602082015250565b7f4552433732313a206d696e7420746f20746865207a65726f2061646472657373600082015250565b7f4f6e6c79206974656d206f776e65722063616e20706572666f726d207468697360008201527f206f7065726174696f6e00000000000000000000000000000000000000000000602082015250565b7f4552433732313a20696e76616c696420746f6b656e2049440000000000000000600082015250565b7f4552433732313a20617070726f76616c20746f2063757272656e74206f776e6560008201527f7200000000000000000000000000000000000000000000000000000000000000602082015250565b7f5072696365206d7573742062652061746c656173742031000000000000000000600082015250565b7f5072696365206d75737420626520657175616c20746f206c697374696e67207060008201527f7269636500000000000000000000000000000000000000000000000000000000602082015250565b7f4552433732313a20617070726f76652063616c6c6572206973206e6f7420746f60008201527f6b656e206f776e6572206f7220617070726f76656420666f7220616c6c000000602082015250565b61433981613c25565b811461434457600080fd5b50565b61435081613c49565b811461435b57600080fd5b50565b61436781613c55565b811461437257600080fd5b50565b61437e81613ca1565b811461438957600080fd5b5056fea2646970667358221220fd111ef037e38a93a298f800522d67b6f45aba75b298bf2c0d54a3764585c45064736f6c63430008040033",
  "linkReferences": {},
  "deployedLinkReferences": {}
}